:040000008A11FD2F35
:100CF200831203138C11930183160313141C7D2E8C
:100D0200831203131308F200F3017208F40073084C
:100D1200F5007508F101F1077408F001F007080009
:100D2200F401F501701C9B2E7208F4070318F50AF2
:100D32007308F50701300310F20DF30DFF3E031D9A
:100D42009C2E01300310F10CF00CFF3E031DA32E6C
:100D520071087004031D932E7508F101F1077408E0
:100D6200F001F007080083120313A101F71FC02E40
:100D7200F609F709F60A0319F70AA101A10AF91FF0
:100D8200CB2EF809F909F80A0319F90A0130FA0019
:100D92007A08A106A201A301770876040319022F9B
:100DA200A001A00AF71BE12E01300310F60DF70D8A
:100DB200FF3E031DD62E0130FA007A08A007D32E7B
:100DC20001300310A20DA30DFF3E031DE22E770892
:100DD2007902031DEE2E76087802031CF72E7608A0
:100DE200F8027708031CF903F902221401300310F8
:100DF200F70CF60CFF3E031DF82E0130A002031D76
:100E0200E12E210803190A2FA209A309A20A031934
:100E1200A30A2308F701F7072208F601F6070800DC
:100E2200003083120313AB000030AA000030A90087
:100E32000030A8000030AF000030AE000030AD003E
:100E42000030AC007C30831603138F0005138B0136
:100E5200F030831203139705981383160313861435
:100E6200061106128611831203131412141094141D
:100E7200141194118316031394131417831203137A
:100E82009416831203138611462F472F8A1179264F
:100E92008A11831203133808700600397006B800ED
:100EA2008A1179268A1183120313370870060039D2
:100EB2007006B7008A1179268A1183120313360845
:100EC200700600397006B6008A1179268A118312DB
:100ED20003133508700600397006B5008615380808
:100EE200B4003708B3003608B2003508B100B001CB
:100EF2003008A400A501A409A509A40A0319A50A9A
:100F02009030F6000130F7003208FF39A600A70141
:100F1200A60EA70EF030A70526080F39A704F03059
:100F2200A605310E0F392607F000003003180130F4
:100F32002707F1001930F2000030F3008A119126E0
:100F42008A117108F901F9077008F801F8078A1186
:100F5200B4268A118312031324087607AC002508ED
:100F62000318250A7707AD00AE01AD1BAE032E08AC
:100F7200AF006430F6000030F7003408FF39A400F7
:100F8200A5010630FF000310A40DA50DFF0BC42F11
:100F9200330CA600260C3F392407F000003003185A
:100FA20001302507F1001930F2000030F3008A11F8
:100FB20091268A117108F901F9077008F801F807FA
:100FC2008A11B4268A11760883120313A8007708BF
:100FD200A9000030A91BFF30AA00AB000630A60012
:100FE2001330A500B130A400A40BF52FA50BF52FEB
:0E0FF200A60BF52FFC2F422F83018A11112F21
:04400E0079FFFFFF38
:00000001FF
