:040000008A11112828
:10000800FE00030EF0000408F1000A08F200831253
:1000180003137F08F3008A1133288A1113288301F8
:100028008A1116287C30831603138F0005138B0161
:100038008B170B178C16F030831203139705941245
:10004800981733308316031399001813981618124B
:1000580018158312031318131816981132288C1EBA
:100068003C2898183A281A0899003C28181218169B
:100078007308FF0072088A0071088400700E8300FC
:06008800FE0E7E0E0900D1
:04400E0079FFFFFF38
:00000001FF
