:040000008A11FD2F35
:100C8800F401F501701C4E2E7208F4070318F50ADA
:100C98007308F50701300310F20DF30DFF3E031D35
:100CA8004F2E01300310F10CF00CFF3E031D562EA1
:100CB80071087004031D462E7508F101F1077408C8
:100CC800F001F007080083120313A101F71F732E28
:100CD800F609F709F60A0319F70AA101A10AF91F8B
:100CE8007E2EF809F909F80A0319F90A0130FA0001
:100CF8007A08A106A201A301770876040319B52E84
:100D0800A001A00AF71B942E01300310F60DF70D71
:100D1800FF3E031D892E0130FA007A08A007862EAF
:100D280001300310A20DA30DFF3E031D952E770879
:100D38007902031DA12E76087802031CAA2E7608D4
:100D4800F8027708031CF903F90222140130031092
:100D5800F70CF60CFF3E031DAB2E0130A002031D5D
:100D6800942E21080319BD2EA209A309A20A03196A
:100D7800A30A2308F701F7072208F601F607080077
:100D880083120313BD010030B3000030B2000030FD
:100D9800B1000030B0000030B7000030B6000030BD
:100DA800B5000030B4000030BC000030BB0000309B
:100DB800BA000030B9007C30831603138F00051386
:100DC8008B01F0308312031397059813941283163E
:100DD8000313861406118611831203138615003037
:100DE80083120313BC000030BB000030BA0000308F
:100DF800B90086110611002F83120313BD0120309C
:100E08003D0203184A2F0615092F83120313060CF7
:100E18000139A400A501A601A7012408B9072508DE
:100E280003110318013E031DBA072608031103180E
:100E3800013E031DBB07270803110318013E031DCC
:100E4800BC073908A4003A08A5003B08A6003C08DE
:100E5800A70001300310A40DA50DA60DA70DFF3E98
:100E6800031D2E2F2708BC002608BB002508BA0042
:100E78002408B9000611402F013083120313A4007F
:100E88002408BD0720303D02031C072F86153C08A7
:100E9800C1003B08C0003A08BF003908BE00143042
:100EA800A4002408B8003808A400A501A409A509CD
:100EB800A40A0319A50A9030F6000130F7003F088C
:100EC800FF39A600A701A60EA70EF030A705260831
:100ED8000F39A704F030A6053E0E0F392607F0009B
:100EE8000030031801302707F1001930F2000030F4
:100EF800F3008A1144268A117108F901F90770086C
:100F0800F801F8078A1167268A1183120313240847
:100F18007607B40025080318250A7707B500B60137
:100F2800B51BB6033608B7006430F6000030F7008A
:100F38004108FF39A400A5010630FF000310A40DE5
:100F4800A50DFF0BA22F400CA600260C3F39240745
:100F5800F0000030031801302507F1001930F200C5
:100F68000030F3008A1144268A117108F901F90743
:100F78007008F801F8078A1167268A117608831223
:100F88000313B0007708B1000030B11BFF30B20086
:100F9800B3003E080139A400A5012408A8002508CB
:100FA800A9003E0C0139A400A5012408AA002508BF
:100FB800AB003E0CA400240C0139A500A6012508AD
:100FC800AC002608AD0040080139A400A50124089A
:100FD800AE002508AF000230A6000430A500BA30E4
:100FE800A400A40BF52FA50BF52FA60BF52F0000D9
:080FF800F32E83018A11C42EBF
:04400E0079FFFFFF38
:00000001FF
